{
  "_format": "hh-sol-artifact-1",
  "contractName": "MiniflixSubscriptionCards",
  "sourceName": "contracts/MiniflixSubscriptionCards.sol",
  "abi": [
    {
      "inputs": [
        {
          "internalType": "string",
          "name": "baseURI",
          "type": "string"
        }
      ],
      "stateMutability": "nonpayable",
      "type": "constructor"
    },
    {
      "anonymous": false,
      "inputs": [
        {
          "indexed": true,
          "internalType": "address",
          "name": "owner",
          "type": "address"
        },
        {
          "indexed": true,
          "internalType": "address",
          "name": "approved",
          "type": "address"
        },
        {
          "indexed": true,
          "internalType": "uint256",
          "name": "tokenId",
          "type": "uint256"
        }
      ],
      "name": "Approval",
      "type": "event"
    },
    {
      "anonymous": false,
      "inputs": [
        {
          "indexed": true,
          "internalType": "address",
          "name": "owner",
          "type": "address"
        },
        {
          "indexed": true,
          "internalType": "address",
          "name": "operator",
          "type": "address"
        },
        {
          "indexed": false,
          "internalType": "bool",
          "name": "approved",
          "type": "bool"
        }
      ],
      "name": "ApprovalForAll",
      "type": "event"
    },
    {
      "anonymous": false,
      "inputs": [
        {
          "indexed": false,
          "internalType": "address",
          "name": "sender",
          "type": "address"
        },
        {
          "indexed": false,
          "internalType": "uint256",
          "name": "tokenId",
          "type": "uint256"
        }
      ],
      "name": "NewNFTMinted",
      "type": "event"
    },
    {
      "anonymous": false,
      "inputs": [
        {
          "indexed": true,
          "internalType": "address",
          "name": "previousOwner",
          "type": "address"
        },
        {
          "indexed": true,
          "internalType": "address",
          "name": "newOwner",
          "type": "address"
        }
      ],
      "name": "OwnershipTransferred",
      "type": "event"
    },
    {
      "anonymous": false,
      "inputs": [
        {
          "indexed": false,
          "internalType": "enum MiniflixSubscriptionCards.Tier",
          "name": "tier",
          "type": "uint8"
        },
        {
          "indexed": false,
          "internalType": "uint256",
          "name": "newPrice",
          "type": "uint256"
        }
      ],
      "name": "SubscriptionPriceUpdated",
      "type": "event"
    },
    {
      "anonymous": false,
      "inputs": [
        {
          "indexed": true,
          "internalType": "address",
          "name": "from",
          "type": "address"
        },
        {
          "indexed": true,
          "internalType": "address",
          "name": "to",
          "type": "address"
        },
        {
          "indexed": true,
          "internalType": "uint256",
          "name": "tokenId",
          "type": "uint256"
        }
      ],
      "name": "Transfer",
      "type": "event"
    },
    {
      "inputs": [
        {
          "internalType": "address",
          "name": "to",
          "type": "address"
        },
        {
          "internalType": "uint256",
          "name": "tokenId",
          "type": "uint256"
        }
      ],
      "name": "approve",
      "outputs": [],
      "stateMutability": "nonpayable",
      "type": "function"
    },
    {
      "inputs": [
        {
          "internalType": "address",
          "name": "owner",
          "type": "address"
        }
      ],
      "name": "balanceOf",
      "outputs": [
        {
          "internalType": "uint256",
          "name": "",
          "type": "uint256"
        }
      ],
      "stateMutability": "view",
      "type": "function"
    },
    {
      "inputs": [],
      "name": "basicTierUSDPrice",
      "outputs": [
        {
          "internalType": "uint256",
          "name": "",
          "type": "uint256"
        }
      ],
      "stateMutability": "view",
      "type": "function"
    },
    {
      "inputs": [
        {
          "internalType": "uint256",
          "name": "tokenId",
          "type": "uint256"
        }
      ],
      "name": "getApproved",
      "outputs": [
        {
          "internalType": "address",
          "name": "",
          "type": "address"
        }
      ],
      "stateMutability": "view",
      "type": "function"
    },
    {
      "inputs": [],
      "name": "getLatestPrice",
      "outputs": [
        {
          "internalType": "uint256",
          "name": "",
          "type": "uint256"
        }
      ],
      "stateMutability": "view",
      "type": "function"
    },
    {
      "inputs": [
        {
          "internalType": "enum MiniflixSubscriptionCards.Tier",
          "name": "_tier",
          "type": "uint8"
        }
      ],
      "name": "getSubscriptionPrice",
      "outputs": [
        {
          "internalType": "uint256",
          "name": "",
          "type": "uint256"
        }
      ],
      "stateMutability": "view",
      "type": "function"
    },
    {
      "inputs": [
        {
          "internalType": "address",
          "name": "owner",
          "type": "address"
        },
        {
          "internalType": "address",
          "name": "operator",
          "type": "address"
        }
      ],
      "name": "isApprovedForAll",
      "outputs": [
        {
          "internalType": "bool",
          "name": "",
          "type": "bool"
        }
      ],
      "stateMutability": "view",
      "type": "function"
    },
    {
      "inputs": [
        {
          "internalType": "enum MiniflixSubscriptionCards.Tier",
          "name": "_tier",
          "type": "uint8"
        }
      ],
      "name": "mint",
      "outputs": [],
      "stateMutability": "payable",
      "type": "function"
    },
    {
      "inputs": [],
      "name": "name",
      "outputs": [
        {
          "internalType": "string",
          "name": "",
          "type": "string"
        }
      ],
      "stateMutability": "view",
      "type": "function"
    },
    {
      "inputs": [],
      "name": "owner",
      "outputs": [
        {
          "internalType": "address",
          "name": "",
          "type": "address"
        }
      ],
      "stateMutability": "view",
      "type": "function"
    },
    {
      "inputs": [
        {
          "internalType": "uint256",
          "name": "tokenId",
          "type": "uint256"
        }
      ],
      "name": "ownerOf",
      "outputs": [
        {
          "internalType": "address",
          "name": "",
          "type": "address"
        }
      ],
      "stateMutability": "view",
      "type": "function"
    },
    {
      "inputs": [],
      "name": "premiumTierUSDPrice",
      "outputs": [
        {
          "internalType": "uint256",
          "name": "",
          "type": "uint256"
        }
      ],
      "stateMutability": "view",
      "type": "function"
    },
    {
      "inputs": [],
      "name": "renounceOwnership",
      "outputs": [],
      "stateMutability": "nonpayable",
      "type": "function"
    },
    {
      "inputs": [
        {
          "internalType": "address",
          "name": "from",
          "type": "address"
        },
        {
          "internalType": "address",
          "name": "to",
          "type": "address"
        },
        {
          "internalType": "uint256",
          "name": "tokenId",
          "type": "uint256"
        }
      ],
      "name": "safeTransferFrom",
      "outputs": [],
      "stateMutability": "nonpayable",
      "type": "function"
    },
    {
      "inputs": [
        {
          "internalType": "address",
          "name": "from",
          "type": "address"
        },
        {
          "internalType": "address",
          "name": "to",
          "type": "address"
        },
        {
          "internalType": "uint256",
          "name": "tokenId",
          "type": "uint256"
        },
        {
          "internalType": "bytes",
          "name": "_data",
          "type": "bytes"
        }
      ],
      "name": "safeTransferFrom",
      "outputs": [],
      "stateMutability": "nonpayable",
      "type": "function"
    },
    {
      "inputs": [
        {
          "internalType": "address",
          "name": "operator",
          "type": "address"
        },
        {
          "internalType": "bool",
          "name": "approved",
          "type": "bool"
        }
      ],
      "name": "setApprovalForAll",
      "outputs": [],
      "stateMutability": "nonpayable",
      "type": "function"
    },
    {
      "inputs": [
        {
          "internalType": "string",
          "name": "_newBaseTokenURI",
          "type": "string"
        }
      ],
      "name": "setBaseURI",
      "outputs": [],
      "stateMutability": "nonpayable",
      "type": "function"
    },
    {
      "inputs": [],
      "name": "standardTierUSDPrice",
      "outputs": [
        {
          "internalType": "uint256",
          "name": "",
          "type": "uint256"
        }
      ],
      "stateMutability": "view",
      "type": "function"
    },
    {
      "inputs": [
        {
          "internalType": "bytes4",
          "name": "interfaceId",
          "type": "bytes4"
        }
      ],
      "name": "supportsInterface",
      "outputs": [
        {
          "internalType": "bool",
          "name": "",
          "type": "bool"
        }
      ],
      "stateMutability": "view",
      "type": "function"
    },
    {
      "inputs": [],
      "name": "symbol",
      "outputs": [
        {
          "internalType": "string",
          "name": "",
          "type": "string"
        }
      ],
      "stateMutability": "view",
      "type": "function"
    },
    {
      "inputs": [
        {
          "internalType": "uint256",
          "name": "tokenId",
          "type": "uint256"
        }
      ],
      "name": "tokenURI",
      "outputs": [
        {
          "internalType": "string",
          "name": "",
          "type": "string"
        }
      ],
      "stateMutability": "view",
      "type": "function"
    },
    {
      "inputs": [
        {
          "internalType": "address",
          "name": "from",
          "type": "address"
        },
        {
          "internalType": "address",
          "name": "to",
          "type": "address"
        },
        {
          "internalType": "uint256",
          "name": "tokenId",
          "type": "uint256"
        }
      ],
      "name": "transferFrom",
      "outputs": [],
      "stateMutability": "nonpayable",
      "type": "function"
    },
    {
      "inputs": [
        {
          "internalType": "address",
          "name": "newOwner",
          "type": "address"
        }
      ],
      "name": "transferOwnership",
      "outputs": [],
      "stateMutability": "nonpayable",
      "type": "function"
    },
    {
      "inputs": [
        {
          "internalType": "enum MiniflixSubscriptionCards.Tier",
          "name": "_tier",
          "type": "uint8"
        },
        {
          "internalType": "uint256",
          "name": "_newPrice",
          "type": "uint256"
        }
      ],
      "name": "updateTierSubscriptionPrice",
      "outputs": [],
      "stateMutability": "nonpayable",
      "type": "function"
    }
  ],
  "bytecode": "0x6080604052600a600b55600f600c556014600d553480156200002057600080fd5b50604051620024df380380620024df833981016040819052620000439162000320565b604080518082018252601b81527f4d696e69666c697820537562736372697074696f6e20436172647300000000006020808301918252835180850190945260038452624d534360e81b908401528151919291620000a3916000916200027a565b508051620000b99060019060208401906200027a565b505050620000d6620000d06200013d60201b60201c565b62000141565b600880546001600160a01b03191673793914b5e04d7fe17b2f938585e0038f3c32285b179055620001078162000193565b62000136604051806060016040528060318152602001620024ae603191396200020b60201b62000d981760201c565b5062000493565b3390565b600780546001600160a01b038381166001600160a01b0319831681179093556040519116919082907f8be0079c531659141344cd1fd0a4f28419497f9722a3daafe3b4186f6b6457e090600090a35050565b6007546001600160a01b03163314620001f25760405162461bcd60e51b815260206004820181905260248201527f4f776e61626c653a2063616c6c6572206973206e6f7420746865206f776e6572604482015260640160405180910390fd5b80516200020790600a9060208401906200027a565b5050565b6200025681604051602401620002229190620003d8565b60408051601f198184030181529190526020810180516001600160e01b0390811663104c13eb60e21b179091526200025916565b50565b80516a636f6e736f6c652e6c6f67602083016000808483855afa5050505050565b828054620002889062000440565b90600052602060002090601f016020900481019282620002ac5760008555620002f7565b82601f10620002c757805160ff1916838001178555620002f7565b82800160010185558215620002f7579182015b82811115620002f7578251825591602001919060010190620002da565b506200030592915062000309565b5090565b5b808211156200030557600081556001016200030a565b6000602082840312156200033357600080fd5b81516001600160401b03808211156200034b57600080fd5b818401915084601f8301126200036057600080fd5b8151818111156200037557620003756200047d565b604051601f8201601f19908116603f01168101908382118183101715620003a057620003a06200047d565b81604052828152876020848701011115620003ba57600080fd5b620003cd8360208301602088016200040d565b979650505050505050565b6020815260008251806020840152620003f98160408501602087016200040d565b601f01601f19169190910160400192915050565b60005b838110156200042a57818101518382015260200162000410565b838111156200043a576000848401525b50505050565b600181811c908216806200045557607f821691505b602082108114156200047757634e487b7160e01b600052602260045260246000fd5b50919050565b634e487b7160e01b600052604160045260246000fd5b61200b80620004a36000396000f3fe60806040526004361061014b5760003560e01c806370a08231116100b6578063a22cb4651161006f578063a22cb4651461038b578063b88d4fde146103ab578063c87b56dd146103cb578063dfc7ac3a146103eb578063e985e9c514610401578063f2fde38b1461044a57600080fd5b806370a08231146102f8578063715018a6146103185780638da5cb5b1461032d5780638e15f4731461034b57806395d89b41146103605780639c24c73e1461037557600080fd5b806332ccef501161010857806332ccef501461024557806342842e0e1461026557806355f804b31461028557806357d6e5be146102a55780636352211e146102c55780636ecd2306146102e557600080fd5b806301ffc9a71461015057806306fdde0314610185578063081812fc146101a7578063095ea7b3146101df57806323b872dd146102015780632d9b9f9a14610221575b600080fd5b34801561015c57600080fd5b5061017061016b366004611aa0565b61046a565b60405190151581526020015b60405180910390f35b34801561019157600080fd5b5061019a6104bc565b60405161017c9190611d26565b3480156101b357600080fd5b506101c76101c2366004611b5a565b61054e565b6040516001600160a01b03909116815260200161017c565b3480156101eb57600080fd5b506101ff6101fa366004611a76565b6105db565b005b34801561020d57600080fd5b506101ff61021c366004611982565b6106f1565b34801561022d57600080fd5b50610237600d5481565b60405190815260200161017c565b34801561025157600080fd5b506101ff610260366004611af5565b610722565b34801561027157600080fd5b506101ff610280366004611982565b6107d3565b34801561029157600080fd5b506101ff6102a0366004611b11565b6107ee565b3480156102b157600080fd5b506102376102c0366004611ada565b61082f565b3480156102d157600080fd5b506101c76102e0366004611b5a565b61087e565b6101ff6102f3366004611ada565b6108f5565b34801561030457600080fd5b50610237610313366004611934565b6109e6565b34801561032457600080fd5b506101ff610a6d565b34801561033957600080fd5b506007546001600160a01b03166101c7565b34801561035757600080fd5b50610237610aa3565b34801561036c57600080fd5b5061019a610b41565b34801561038157600080fd5b50610237600b5481565b34801561039757600080fd5b506101ff6103a6366004611a3a565b610b50565b3480156103b757600080fd5b506101ff6103c63660046119be565b610b5b565b3480156103d757600080fd5b5061019a6103e6366004611b5a565b610b93565b3480156103f757600080fd5b50610237600c5481565b34801561040d57600080fd5b5061017061041c36600461194f565b6001600160a01b03918216600090815260056020908152604080832093909416825291909152205460ff1690565b34801561045657600080fd5b506101ff610465366004611934565b610cfd565b60006001600160e01b031982166380ac58cd60e01b148061049b57506001600160e01b03198216635b5e139f60e01b145b806104b657506301ffc9a760e01b6001600160e01b03198316145b92915050565b6060600080546104cb90611eb3565b80601f01602080910402602001604051908101604052809291908181526020018280546104f790611eb3565b80156105445780601f1061051957610100808354040283529160200191610544565b820191906000526020600020905b81548152906001019060200180831161052757829003601f168201915b5050505050905090565b600061055982610ddb565b6105bf5760405162461bcd60e51b815260206004820152602c60248201527f4552433732313a20617070726f76656420717565727920666f72206e6f6e657860448201526b34b9ba32b73a103a37b5b2b760a11b60648201526084015b60405180910390fd5b506000908152600460205260409020546001600160a01b031690565b60006105e68261087e565b9050806001600160a01b0316836001600160a01b031614156106545760405162461bcd60e51b815260206004820152602160248201527f4552433732313a20617070726f76616c20746f2063757272656e74206f776e656044820152603960f91b60648201526084016105b6565b336001600160a01b03821614806106705750610670813361041c565b6106e25760405162461bcd60e51b815260206004820152603860248201527f4552433732313a20617070726f76652063616c6c6572206973206e6f74206f7760448201527f6e6572206e6f7220617070726f76656420666f7220616c6c000000000000000060648201526084016105b6565b6106ec8383610df8565b505050565b6106fb3382610e66565b6107175760405162461bcd60e51b81526004016105b690611df3565b6106ec838383610f4c565b6007546001600160a01b0316331461074c5760405162461bcd60e51b81526004016105b690611dbe565b81600281111561075e5761075e611f49565b61076c57600b819055610796565b81600281111561077e5761077e611f49565b6001141561079057600c819055610796565b600d8190555b7f84e8a664e175a9225def31275c398620336d2c1f22d986666c9ed41840aa81f982826040516107c7929190611cfa565b60405180910390a15050565b6106ec83838360405180602001604052806000815250610b5b565b6007546001600160a01b031633146108185760405162461bcd60e51b81526004016105b690611dbe565b805161082b90600a9060208401906117ee565b5050565b600081600281111561084357610843611f49565b61084f575050600b5490565b81600281111561086157610861611f49565b60011415610871575050600c5490565b5050600d5490565b919050565b6000818152600260205260408120546001600160a01b0316806104b65760405162461bcd60e51b815260206004820152602960248201527f4552433732313a206f776e657220717565727920666f72206e6f6e657869737460448201526832b73a103a37b5b2b760b91b60648201526084016105b6565b600134101561093c5760405162461bcd60e51b81526020600482015260136024820152721b9bdd08195b9bdd59da08115512081cd95b9d606a1b60448201526064016105b6565b600061094760095490565b9050610957600980546001019055565b61096133826110ec565b610984604051806060016040528060348152602001611fa2603491398233611106565b6109b081600a8360405160200161099c929190611c1e565b60405160208183030381529060405261114d565b60408051338152602081018390527f1c05098ed1ff38e6238d2b1b04b2c7977d4c94ce651bda6473f9dba8dbf01da091016107c7565b60006001600160a01b038216610a515760405162461bcd60e51b815260206004820152602a60248201527f4552433732313a2062616c616e636520717565727920666f7220746865207a65604482015269726f206164647265737360b01b60648201526084016105b6565b506001600160a01b031660009081526003602052604090205490565b6007546001600160a01b03163314610a975760405162461bcd60e51b81526004016105b690611dbe565b610aa160006111d8565b565b600080600860009054906101000a90046001600160a01b03166001600160a01b031663feaf968c6040518163ffffffff1660e01b815260040160a06040518083038186803b158015610af457600080fd5b505afa158015610b08573d6000803e3d6000fd5b505050506040513d601f19601f82011682018060405250810190610b2c9190611b73565b505050915050610b3b8161122a565b91505090565b6060600180546104cb90611eb3565b61082b338383611280565b610b653383610e66565b610b815760405162461bcd60e51b81526004016105b690611df3565b610b8d8484848461134f565b50505050565b6060610b9e82610ddb565b610c045760405162461bcd60e51b815260206004820152603160248201527f45524337323155524953746f726167653a2055524920717565727920666f72206044820152703737b732bc34b9ba32b73a103a37b5b2b760791b60648201526084016105b6565b60008281526006602052604081208054610c1d90611eb3565b80601f0160208091040260200160405190810160405280929190818152602001828054610c4990611eb3565b8015610c965780601f10610c6b57610100808354040283529160200191610c96565b820191906000526020600020905b815481529060010190602001808311610c7957829003601f168201915b505050505090506000610ca7611382565b9050805160001415610cba575092915050565b815115610cec578082604051602001610cd4929190611bef565b60405160208183030381529060405292505050919050565b610cf584611391565b949350505050565b6007546001600160a01b03163314610d275760405162461bcd60e51b81526004016105b690611dbe565b6001600160a01b038116610d8c5760405162461bcd60e51b815260206004820152602660248201527f4f776e61626c653a206e6577206f776e657220697320746865207a65726f206160448201526564647265737360d01b60648201526084016105b6565b610d95816111d8565b50565b610d9581604051602401610dac9190611d26565b60408051601f198184030181529190526020810180516001600160e01b031663104c13eb60e21b17905261145c565b6000908152600260205260409020546001600160a01b0316151590565b600081815260046020526040902080546001600160a01b0319166001600160a01b0384169081179091558190610e2d8261087e565b6001600160a01b03167f8c5be1e5ebec7d5bd14f71427d1e84f3dd0314c0f7b2291e5b200ac8c7c3b92560405160405180910390a45050565b6000610e7182610ddb565b610ed25760405162461bcd60e51b815260206004820152602c60248201527f4552433732313a206f70657261746f7220717565727920666f72206e6f6e657860448201526b34b9ba32b73a103a37b5b2b760a11b60648201526084016105b6565b6000610edd8361087e565b9050806001600160a01b0316846001600160a01b03161480610f185750836001600160a01b0316610f0d8461054e565b6001600160a01b0316145b80610cf557506001600160a01b0380821660009081526005602090815260408083209388168352929052205460ff16610cf5565b826001600160a01b0316610f5f8261087e565b6001600160a01b031614610fc75760405162461bcd60e51b815260206004820152602960248201527f4552433732313a207472616e73666572206f6620746f6b656e2074686174206960448201526839903737ba1037bbb760b91b60648201526084016105b6565b6001600160a01b0382166110295760405162461bcd60e51b8152602060048201526024808201527f4552433732313a207472616e7366657220746f20746865207a65726f206164646044820152637265737360e01b60648201526084016105b6565b611034600082610df8565b6001600160a01b038316600090815260036020526040812080546001929061105d908490611e70565b90915550506001600160a01b038216600090815260036020526040812080546001929061108b908490611e44565b909155505060008181526002602052604080822080546001600160a01b0319166001600160a01b0386811691821790925591518493918716917fddf252ad1be2c89b69c2b068fc378daa952ba7f163c4a11628f55a4df523b3ef91a4505050565b61082b82826040518060200160405280600081525061147d565b6106ec83838360405160240161111e93929190611d39565b60408051601f198184030181529190526020810180516001600160e01b031663e3849f7960e01b17905261145c565b61115682610ddb565b6111b95760405162461bcd60e51b815260206004820152602e60248201527f45524337323155524953746f726167653a2055524920736574206f66206e6f6e60448201526d32bc34b9ba32b73a103a37b5b2b760911b60648201526084016105b6565b600082815260066020908152604090912082516106ec928401906117ee565b600780546001600160a01b038381166001600160a01b0319831681179093556040519116919082907f8be0079c531659141344cd1fd0a4f28419497f9722a3daafe3b4186f6b6457e090600090a35050565b60008082121561127c5760405162461bcd60e51b815260206004820181905260248201527f53616665436173743a2076616c7565206d75737420626520706f73697469766560448201526064016105b6565b5090565b816001600160a01b0316836001600160a01b031614156112e25760405162461bcd60e51b815260206004820152601960248201527f4552433732313a20617070726f766520746f2063616c6c65720000000000000060448201526064016105b6565b6001600160a01b03838116600081815260056020908152604080832094871680845294825291829020805460ff191686151590811790915591519182527f17307eab39ab6107e8899845ad3d59bd9653f200f220920489ca2b5937696c31910160405180910390a3505050565b61135a848484610f4c565b611366848484846114b0565b610b8d5760405162461bcd60e51b81526004016105b690611d6c565b6060600a80546104cb90611eb3565b606061139c82610ddb565b6114005760405162461bcd60e51b815260206004820152602f60248201527f4552433732314d657461646174613a2055524920717565727920666f72206e6f60448201526e3732bc34b9ba32b73a103a37b5b2b760891b60648201526084016105b6565b600061140a611382565b9050600081511161142a5760405180602001604052806000815250611455565b80611434846115bd565b604051602001611445929190611bef565b6040516020818303038152906040525b9392505050565b80516a636f6e736f6c652e6c6f67602083016000808483855afa5050505050565b61148783836116bb565b61149460008484846114b0565b6106ec5760405162461bcd60e51b81526004016105b690611d6c565b60006001600160a01b0384163b156115b257604051630a85bd0160e11b81526001600160a01b0385169063150b7a02906114f4903390899088908890600401611cbd565b602060405180830381600087803b15801561150e57600080fd5b505af192505050801561153e575060408051601f3d908101601f1916820190925261153b91810190611abd565b60015b611598573d80801561156c576040519150601f19603f3d011682016040523d82523d6000602084013e611571565b606091505b5080516115905760405162461bcd60e51b81526004016105b690611d6c565b805181602001fd5b6001600160e01b031916630a85bd0160e11b149050610cf5565b506001949350505050565b6060816115e15750506040805180820190915260018152600360fc1b602082015290565b8160005b811561160b57806115f581611eee565b91506116049050600a83611e5c565b91506115e5565b60008167ffffffffffffffff81111561162657611626611f75565b6040519080825280601f01601f191660200182016040528015611650576020820181803683370190505b5090505b8415610cf557611665600183611e70565b9150611672600a86611f09565b61167d906030611e44565b60f81b81838151811061169257611692611f5f565b60200101906001600160f81b031916908160001a9053506116b4600a86611e5c565b9450611654565b6001600160a01b0382166117115760405162461bcd60e51b815260206004820181905260248201527f4552433732313a206d696e7420746f20746865207a65726f206164647265737360448201526064016105b6565b61171a81610ddb565b156117675760405162461bcd60e51b815260206004820152601c60248201527f4552433732313a20746f6b656e20616c7265616479206d696e7465640000000060448201526064016105b6565b6001600160a01b0382166000908152600360205260408120805460019290611790908490611e44565b909155505060008181526002602052604080822080546001600160a01b0319166001600160a01b03861690811790915590518392907fddf252ad1be2c89b69c2b068fc378daa952ba7f163c4a11628f55a4df523b3ef908290a45050565b8280546117fa90611eb3565b90600052602060002090601f01602090048101928261181c5760008555611862565b82601f1061183557805160ff1916838001178555611862565b82800160010185558215611862579182015b82811115611862578251825591602001919060010190611847565b5061127c9291505b8082111561127c576000815560010161186a565b600067ffffffffffffffff8084111561189957611899611f75565b604051601f8501601f19908116603f011681019082821181831017156118c1576118c1611f75565b816040528093508581528686860111156118da57600080fd5b858560208301376000602087830101525050509392505050565b80356001600160a01b038116811461087957600080fd5b80356003811061087957600080fd5b805169ffffffffffffffffffff8116811461087957600080fd5b60006020828403121561194657600080fd5b611455826118f4565b6000806040838503121561196257600080fd5b61196b836118f4565b9150611979602084016118f4565b90509250929050565b60008060006060848603121561199757600080fd5b6119a0846118f4565b92506119ae602085016118f4565b9150604084013590509250925092565b600080600080608085870312156119d457600080fd5b6119dd856118f4565b93506119eb602086016118f4565b925060408501359150606085013567ffffffffffffffff811115611a0e57600080fd5b8501601f81018713611a1f57600080fd5b611a2e8782356020840161187e565b91505092959194509250565b60008060408385031215611a4d57600080fd5b611a56836118f4565b915060208301358015158114611a6b57600080fd5b809150509250929050565b60008060408385031215611a8957600080fd5b611a92836118f4565b946020939093013593505050565b600060208284031215611ab257600080fd5b813561145581611f8b565b600060208284031215611acf57600080fd5b815161145581611f8b565b600060208284031215611aec57600080fd5b6114558261190b565b60008060408385031215611b0857600080fd5b611a928361190b565b600060208284031215611b2357600080fd5b813567ffffffffffffffff811115611b3a57600080fd5b8201601f81018413611b4b57600080fd5b610cf58482356020840161187e565b600060208284031215611b6c57600080fd5b5035919050565b600080600080600060a08688031215611b8b57600080fd5b611b948661191a565b9450602086015193506040860151925060608601519150611bb76080870161191a565b90509295509295909350565b60008151808452611bdb816020860160208601611e87565b601f01601f19169290920160200192915050565b60008351611c01818460208801611e87565b835190830190611c15818360208801611e87565b01949350505050565b600080845481600182811c915080831680611c3a57607f831692505b6020808410821415611c5a57634e487b7160e01b86526022600452602486fd5b818015611c6e5760018114611c7f57611cac565b60ff19861689528489019650611cac565b60008b81526020902060005b86811015611ca45781548b820152908501908301611c8b565b505084890196505b509785525050509301949350505050565b6001600160a01b0385811682528416602082015260408101839052608060608201819052600090611cf090830184611bc3565b9695505050505050565b6040810160038410611d1c57634e487b7160e01b600052602160045260246000fd5b9281526020015290565b6020815260006114556020830184611bc3565b606081526000611d4c6060830186611bc3565b6020830194909452506001600160a01b0391909116604090910152919050565b60208082526032908201527f4552433732313a207472616e7366657220746f206e6f6e20455243373231526560408201527131b2b4bb32b91034b6b83632b6b2b73a32b960711b606082015260800190565b6020808252818101527f4f776e61626c653a2063616c6c6572206973206e6f7420746865206f776e6572604082015260600190565b60208082526031908201527f4552433732313a207472616e736665722063616c6c6572206973206e6f74206f6040820152701ddb995c881b9bdc88185c1c1c9bdd9959607a1b606082015260800190565b60008219821115611e5757611e57611f1d565b500190565b600082611e6b57611e6b611f33565b500490565b600082821015611e8257611e82611f1d565b500390565b60005b83811015611ea2578181015183820152602001611e8a565b83811115610b8d5750506000910152565b600181811c90821680611ec757607f821691505b60208210811415611ee857634e487b7160e01b600052602260045260246000fd5b50919050565b6000600019821415611f0257611f02611f1d565b5060010190565b600082611f1857611f18611f33565b500690565b634e487b7160e01b600052601160045260246000fd5b634e487b7160e01b600052601260045260246000fd5b634e487b7160e01b600052602160045260246000fd5b634e487b7160e01b600052603260045260246000fd5b634e487b7160e01b600052604160045260246000fd5b6001600160e01b031981168114610d9557600080fdfe4d696e69666c697820537562736372697074696f6e20436172642023257320686173206265656e206d696e74656420746f202573a26469706673582212208286b83208b8b1ea745a476baffec85e262c9c4d8519988cb6a432c4110316ef64736f6c634300080700334d696e69666c697820737562736372697074696f6e206361726420736d61727420636f6e74726163742063726561746564",
  "linkReferences": {},
  "deployedLinkReferences": {}
}