{
  "_format": "hh-sol-artifact-1",
  "contractName": "MiniflixSubscriptionCards",
  "sourceName": "contracts/MiniflixSubscriptionCards.sol",
  "abi": [
    {
      "inputs": [
        {
          "internalType": "string",
          "name": "baseURI",
          "type": "string"
        }
      ],
      "stateMutability": "nonpayable",
      "type": "constructor"
    },
    {
      "anonymous": false,
      "inputs": [
        {
          "indexed": true,
          "internalType": "address",
          "name": "owner",
          "type": "address"
        },
        {
          "indexed": true,
          "internalType": "address",
          "name": "approved",
          "type": "address"
        },
        {
          "indexed": true,
          "internalType": "uint256",
          "name": "tokenId",
          "type": "uint256"
        }
      ],
      "name": "Approval",
      "type": "event"
    },
    {
      "anonymous": false,
      "inputs": [
        {
          "indexed": true,
          "internalType": "address",
          "name": "owner",
          "type": "address"
        },
        {
          "indexed": true,
          "internalType": "address",
          "name": "operator",
          "type": "address"
        },
        {
          "indexed": false,
          "internalType": "bool",
          "name": "approved",
          "type": "bool"
        }
      ],
      "name": "ApprovalForAll",
      "type": "event"
    },
    {
      "anonymous": false,
      "inputs": [
        {
          "indexed": false,
          "internalType": "address",
          "name": "sender",
          "type": "address"
        },
        {
          "indexed": false,
          "internalType": "uint256",
          "name": "tokenId",
          "type": "uint256"
        }
      ],
      "name": "NewNFTMinted",
      "type": "event"
    },
    {
      "anonymous": false,
      "inputs": [
        {
          "indexed": true,
          "internalType": "address",
          "name": "previousOwner",
          "type": "address"
        },
        {
          "indexed": true,
          "internalType": "address",
          "name": "newOwner",
          "type": "address"
        }
      ],
      "name": "OwnershipTransferred",
      "type": "event"
    },
    {
      "anonymous": false,
      "inputs": [
        {
          "indexed": false,
          "internalType": "enum MiniflixSubscriptionCards.Tier",
          "name": "tier",
          "type": "uint8"
        },
        {
          "indexed": false,
          "internalType": "uint256",
          "name": "newPrice",
          "type": "uint256"
        }
      ],
      "name": "SubscriptionPriceUpdated",
      "type": "event"
    },
    {
      "anonymous": false,
      "inputs": [
        {
          "indexed": true,
          "internalType": "address",
          "name": "from",
          "type": "address"
        },
        {
          "indexed": true,
          "internalType": "address",
          "name": "to",
          "type": "address"
        },
        {
          "indexed": true,
          "internalType": "uint256",
          "name": "tokenId",
          "type": "uint256"
        }
      ],
      "name": "Transfer",
      "type": "event"
    },
    {
      "inputs": [
        {
          "internalType": "address",
          "name": "to",
          "type": "address"
        },
        {
          "internalType": "uint256",
          "name": "tokenId",
          "type": "uint256"
        }
      ],
      "name": "approve",
      "outputs": [],
      "stateMutability": "nonpayable",
      "type": "function"
    },
    {
      "inputs": [
        {
          "internalType": "address",
          "name": "owner",
          "type": "address"
        }
      ],
      "name": "balanceOf",
      "outputs": [
        {
          "internalType": "uint256",
          "name": "",
          "type": "uint256"
        }
      ],
      "stateMutability": "view",
      "type": "function"
    },
    {
      "inputs": [],
      "name": "basicTierUSDPrice",
      "outputs": [
        {
          "internalType": "uint256",
          "name": "",
          "type": "uint256"
        }
      ],
      "stateMutability": "view",
      "type": "function"
    },
    {
      "inputs": [
        {
          "internalType": "uint256",
          "name": "tokenId",
          "type": "uint256"
        }
      ],
      "name": "getApproved",
      "outputs": [
        {
          "internalType": "address",
          "name": "",
          "type": "address"
        }
      ],
      "stateMutability": "view",
      "type": "function"
    },
    {
      "inputs": [],
      "name": "getLatestPrice",
      "outputs": [
        {
          "internalType": "uint256",
          "name": "",
          "type": "uint256"
        }
      ],
      "stateMutability": "view",
      "type": "function"
    },
    {
      "inputs": [
        {
          "internalType": "enum MiniflixSubscriptionCards.Tier",
          "name": "_tier",
          "type": "uint8"
        }
      ],
      "name": "getSubscriptionPrice",
      "outputs": [
        {
          "internalType": "uint256",
          "name": "",
          "type": "uint256"
        }
      ],
      "stateMutability": "view",
      "type": "function"
    },
    {
      "inputs": [
        {
          "internalType": "address",
          "name": "owner",
          "type": "address"
        },
        {
          "internalType": "address",
          "name": "operator",
          "type": "address"
        }
      ],
      "name": "isApprovedForAll",
      "outputs": [
        {
          "internalType": "bool",
          "name": "",
          "type": "bool"
        }
      ],
      "stateMutability": "view",
      "type": "function"
    },
    {
      "inputs": [
        {
          "internalType": "enum MiniflixSubscriptionCards.Tier",
          "name": "_tier",
          "type": "uint8"
        }
      ],
      "name": "mint",
      "outputs": [],
      "stateMutability": "payable",
      "type": "function"
    },
    {
      "inputs": [],
      "name": "name",
      "outputs": [
        {
          "internalType": "string",
          "name": "",
          "type": "string"
        }
      ],
      "stateMutability": "view",
      "type": "function"
    },
    {
      "inputs": [],
      "name": "owner",
      "outputs": [
        {
          "internalType": "address",
          "name": "",
          "type": "address"
        }
      ],
      "stateMutability": "view",
      "type": "function"
    },
    {
      "inputs": [
        {
          "internalType": "uint256",
          "name": "tokenId",
          "type": "uint256"
        }
      ],
      "name": "ownerOf",
      "outputs": [
        {
          "internalType": "address",
          "name": "",
          "type": "address"
        }
      ],
      "stateMutability": "view",
      "type": "function"
    },
    {
      "inputs": [],
      "name": "premiumTierUSDPrice",
      "outputs": [
        {
          "internalType": "uint256",
          "name": "",
          "type": "uint256"
        }
      ],
      "stateMutability": "view",
      "type": "function"
    },
    {
      "inputs": [],
      "name": "renounceOwnership",
      "outputs": [],
      "stateMutability": "nonpayable",
      "type": "function"
    },
    {
      "inputs": [
        {
          "internalType": "address",
          "name": "from",
          "type": "address"
        },
        {
          "internalType": "address",
          "name": "to",
          "type": "address"
        },
        {
          "internalType": "uint256",
          "name": "tokenId",
          "type": "uint256"
        }
      ],
      "name": "safeTransferFrom",
      "outputs": [],
      "stateMutability": "nonpayable",
      "type": "function"
    },
    {
      "inputs": [
        {
          "internalType": "address",
          "name": "from",
          "type": "address"
        },
        {
          "internalType": "address",
          "name": "to",
          "type": "address"
        },
        {
          "internalType": "uint256",
          "name": "tokenId",
          "type": "uint256"
        },
        {
          "internalType": "bytes",
          "name": "_data",
          "type": "bytes"
        }
      ],
      "name": "safeTransferFrom",
      "outputs": [],
      "stateMutability": "nonpayable",
      "type": "function"
    },
    {
      "inputs": [
        {
          "internalType": "address",
          "name": "operator",
          "type": "address"
        },
        {
          "internalType": "bool",
          "name": "approved",
          "type": "bool"
        }
      ],
      "name": "setApprovalForAll",
      "outputs": [],
      "stateMutability": "nonpayable",
      "type": "function"
    },
    {
      "inputs": [
        {
          "internalType": "string",
          "name": "_newBaseTokenURI",
          "type": "string"
        }
      ],
      "name": "setBaseURI",
      "outputs": [],
      "stateMutability": "nonpayable",
      "type": "function"
    },
    {
      "inputs": [],
      "name": "standardTierUSDPrice",
      "outputs": [
        {
          "internalType": "uint256",
          "name": "",
          "type": "uint256"
        }
      ],
      "stateMutability": "view",
      "type": "function"
    },
    {
      "inputs": [
        {
          "internalType": "bytes4",
          "name": "interfaceId",
          "type": "bytes4"
        }
      ],
      "name": "supportsInterface",
      "outputs": [
        {
          "internalType": "bool",
          "name": "",
          "type": "bool"
        }
      ],
      "stateMutability": "view",
      "type": "function"
    },
    {
      "inputs": [],
      "name": "symbol",
      "outputs": [
        {
          "internalType": "string",
          "name": "",
          "type": "string"
        }
      ],
      "stateMutability": "view",
      "type": "function"
    },
    {
      "inputs": [
        {
          "internalType": "uint256",
          "name": "tokenId",
          "type": "uint256"
        }
      ],
      "name": "tokenURI",
      "outputs": [
        {
          "internalType": "string",
          "name": "",
          "type": "string"
        }
      ],
      "stateMutability": "view",
      "type": "function"
    },
    {
      "inputs": [
        {
          "internalType": "address",
          "name": "from",
          "type": "address"
        },
        {
          "internalType": "address",
          "name": "to",
          "type": "address"
        },
        {
          "internalType": "uint256",
          "name": "tokenId",
          "type": "uint256"
        }
      ],
      "name": "transferFrom",
      "outputs": [],
      "stateMutability": "nonpayable",
      "type": "function"
    },
    {
      "inputs": [
        {
          "internalType": "address",
          "name": "newOwner",
          "type": "address"
        }
      ],
      "name": "transferOwnership",
      "outputs": [],
      "stateMutability": "nonpayable",
      "type": "function"
    },
    {
      "inputs": [
        {
          "internalType": "enum MiniflixSubscriptionCards.Tier",
          "name": "_tier",
          "type": "uint8"
        },
        {
          "internalType": "uint256",
          "name": "_newPrice",
          "type": "uint256"
        }
      ],
      "name": "updateTierSubscriptionPrice",
      "outputs": [],
      "stateMutability": "nonpayable",
      "type": "function"
    }
  ],
  "bytecode": "0x6080604052600a600b55600f600c556014600d553480156200002057600080fd5b50604051620021e0380380620021e0833981016040819052620000439162000282565b604080518082018252601b81527f4d696e69666c697820537562736372697074696f6e20436172647300000000006020808301918252835180850190945260038452624d534360e81b908401528151919291620000a391600091620001dc565b508051620000b9906001906020840190620001dc565b505050620000d6620000d06200010e60201b60201c565b62000112565b600880546001600160a01b03191673793914b5e04d7fe17b2f938585e0038f3c32285b179055620001078162000164565b50620003b1565b3390565b600780546001600160a01b038381166001600160a01b0319831681179093556040519116919082907f8be0079c531659141344cd1fd0a4f28419497f9722a3daafe3b4186f6b6457e090600090a35050565b6007546001600160a01b03163314620001c35760405162461bcd60e51b815260206004820181905260248201527f4f776e61626c653a2063616c6c6572206973206e6f7420746865206f776e6572604482015260640160405180910390fd5b8051620001d890600a906020840190620001dc565b5050565b828054620001ea906200035e565b90600052602060002090601f0160209004810192826200020e576000855562000259565b82601f106200022957805160ff191683800117855562000259565b8280016001018555821562000259579182015b82811115620002595782518255916020019190600101906200023c565b50620002679291506200026b565b5090565b5b808211156200026757600081556001016200026c565b600060208083850312156200029657600080fd5b82516001600160401b0380821115620002ae57600080fd5b818501915085601f830112620002c357600080fd5b815181811115620002d857620002d86200039b565b604051601f8201601f19908116603f011681019083821181831017156200030357620003036200039b565b8160405282815288868487010111156200031c57600080fd5b600093505b8284101562000340578484018601518185018701529285019262000321565b82841115620003525760008684830101525b98975050505050505050565b600181811c908216806200037357607f821691505b602082108114156200039557634e487b7160e01b600052602260045260246000fd5b50919050565b634e487b7160e01b600052604160045260246000fd5b611e1f80620003c16000396000f3fe60806040526004361061014b5760003560e01c806370a08231116100b6578063a22cb4651161006f578063a22cb4651461038b578063b88d4fde146103ab578063c87b56dd146103cb578063dfc7ac3a146103eb578063e985e9c514610401578063f2fde38b1461044a57600080fd5b806370a08231146102f8578063715018a6146103185780638da5cb5b1461032d5780638e15f4731461034b57806395d89b41146103605780639c24c73e1461037557600080fd5b806332ccef501161010857806332ccef501461024557806342842e0e1461026557806355f804b31461028557806357d6e5be146102a55780636352211e146102c55780636ecd2306146102e557600080fd5b806301ffc9a71461015057806306fdde0314610185578063081812fc146101a7578063095ea7b3146101df57806323b872dd146102015780632d9b9f9a14610221575b600080fd5b34801561015c57600080fd5b5061017061016b3660046119ba565b61046a565b60405190151581526020015b60405180910390f35b34801561019157600080fd5b5061019a6104bc565b60405161017c9190611ba1565b3480156101b357600080fd5b506101c76101c2366004611a74565b61054e565b6040516001600160a01b03909116815260200161017c565b3480156101eb57600080fd5b506101ff6101fa366004611990565b6105db565b005b34801561020d57600080fd5b506101ff61021c36600461189c565b6106f1565b34801561022d57600080fd5b50610237600d5481565b60405190815260200161017c565b34801561025157600080fd5b506101ff610260366004611a0f565b610722565b34801561027157600080fd5b506101ff61028036600461189c565b6107d3565b34801561029157600080fd5b506101ff6102a0366004611a2b565b6107ee565b3480156102b157600080fd5b506102376102c03660046119f4565b61082f565b3480156102d157600080fd5b506101c76102e0366004611a74565b61087e565b6101ff6102f33660046119f4565b6108f5565b34801561030457600080fd5b5061023761031336600461184e565b6109ab565b34801561032457600080fd5b506101ff610a32565b34801561033957600080fd5b506007546001600160a01b03166101c7565b34801561035757600080fd5b50610237610a68565b34801561036c57600080fd5b5061019a610b06565b34801561038157600080fd5b50610237600b5481565b34801561039757600080fd5b506101ff6103a6366004611954565b610b15565b3480156103b757600080fd5b506101ff6103c63660046118d8565b610b20565b3480156103d757600080fd5b5061019a6103e6366004611a74565b610b58565b3480156103f757600080fd5b50610237600c5481565b34801561040d57600080fd5b5061017061041c366004611869565b6001600160a01b03918216600090815260056020908152604080832093909416825291909152205460ff1690565b34801561045657600080fd5b506101ff61046536600461184e565b610cc2565b60006001600160e01b031982166380ac58cd60e01b148061049b57506001600160e01b03198216635b5e139f60e01b145b806104b657506301ffc9a760e01b6001600160e01b03198316145b92915050565b6060600080546104cb90611cfb565b80601f01602080910402602001604051908101604052809291908181526020018280546104f790611cfb565b80156105445780601f1061051957610100808354040283529160200191610544565b820191906000526020600020905b81548152906001019060200180831161052757829003601f168201915b5050505050905090565b600061055982610d5d565b6105bf5760405162461bcd60e51b815260206004820152602c60248201527f4552433732313a20617070726f76656420717565727920666f72206e6f6e657860448201526b34b9ba32b73a103a37b5b2b760a11b60648201526084015b60405180910390fd5b506000908152600460205260409020546001600160a01b031690565b60006105e68261087e565b9050806001600160a01b0316836001600160a01b031614156106545760405162461bcd60e51b815260206004820152602160248201527f4552433732313a20617070726f76616c20746f2063757272656e74206f776e656044820152603960f91b60648201526084016105b6565b336001600160a01b03821614806106705750610670813361041c565b6106e25760405162461bcd60e51b815260206004820152603860248201527f4552433732313a20617070726f76652063616c6c6572206973206e6f74206f7760448201527f6e6572206e6f7220617070726f76656420666f7220616c6c000000000000000060648201526084016105b6565b6106ec8383610d7a565b505050565b6106fb3382610de8565b6107175760405162461bcd60e51b81526004016105b690611c3b565b6106ec838383610ece565b6007546001600160a01b0316331461074c5760405162461bcd60e51b81526004016105b690611c06565b81600281111561075e5761075e611d91565b61076c57600b819055610796565b81600281111561077e5761077e611d91565b6001141561079057600c819055610796565b600d8190555b7f84e8a664e175a9225def31275c398620336d2c1f22d986666c9ed41840aa81f982826040516107c7929190611b75565b60405180910390a15050565b6106ec83838360405180602001604052806000815250610b20565b6007546001600160a01b031633146108185760405162461bcd60e51b81526004016105b690611c06565b805161082b90600a906020840190611708565b5050565b600081600281111561084357610843611d91565b61084f575050600b5490565b81600281111561086157610861611d91565b60011415610871575050600c5490565b5050600d5490565b919050565b6000818152600260205260408120546001600160a01b0316806104b65760405162461bcd60e51b815260206004820152602960248201527f4552433732313a206f776e657220717565727920666f72206e6f6e657869737460448201526832b73a103a37b5b2b760b91b60648201526084016105b6565b600134101561093e5760405162461bcd60e51b81526020600482015260156024820152741b9bdd08195b9bdd59da081350551250c81cd95b9d605a1b60448201526064016105b6565b600061094960095490565b9050610959600980546001019055565b610963338261106e565b6109758161097083611088565b611186565b60408051338152602081018390527f1c05098ed1ff38e6238d2b1b04b2c7977d4c94ce651bda6473f9dba8dbf01da091016107c7565b60006001600160a01b038216610a165760405162461bcd60e51b815260206004820152602a60248201527f4552433732313a2062616c616e636520717565727920666f7220746865207a65604482015269726f206164647265737360b01b60648201526084016105b6565b506001600160a01b031660009081526003602052604090205490565b6007546001600160a01b03163314610a5c5760405162461bcd60e51b81526004016105b690611c06565b610a666000611211565b565b600080600860009054906101000a90046001600160a01b03166001600160a01b031663feaf968c6040518163ffffffff1660e01b815260040160a06040518083038186803b158015610ab957600080fd5b505afa158015610acd573d6000803e3d6000fd5b505050506040513d601f19601f82011682018060405250810190610af19190611a8d565b505050915050610b0081611263565b91505090565b6060600180546104cb90611cfb565b61082b3383836112b9565b610b2a3383610de8565b610b465760405162461bcd60e51b81526004016105b690611c3b565b610b5284848484611388565b50505050565b6060610b6382610d5d565b610bc95760405162461bcd60e51b815260206004820152603160248201527f45524337323155524953746f726167653a2055524920717565727920666f72206044820152703737b732bc34b9ba32b73a103a37b5b2b760791b60648201526084016105b6565b60008281526006602052604081208054610be290611cfb565b80601f0160208091040260200160405190810160405280929190818152602001828054610c0e90611cfb565b8015610c5b5780601f10610c3057610100808354040283529160200191610c5b565b820191906000526020600020905b815481529060010190602001808311610c3e57829003601f168201915b505050505090506000610c6c6113bb565b9050805160001415610c7f575092915050565b815115610cb1578082604051602001610c99929190611b09565b60405160208183030381529060405292505050919050565b610cba846113ca565b949350505050565b6007546001600160a01b03163314610cec5760405162461bcd60e51b81526004016105b690611c06565b6001600160a01b038116610d515760405162461bcd60e51b815260206004820152602660248201527f4f776e61626c653a206e6577206f776e657220697320746865207a65726f206160448201526564647265737360d01b60648201526084016105b6565b610d5a81611211565b50565b6000908152600260205260409020546001600160a01b0316151590565b600081815260046020526040902080546001600160a01b0319166001600160a01b0384169081179091558190610daf8261087e565b6001600160a01b03167f8c5be1e5ebec7d5bd14f71427d1e84f3dd0314c0f7b2291e5b200ac8c7c3b92560405160405180910390a45050565b6000610df382610d5d565b610e545760405162461bcd60e51b815260206004820152602c60248201527f4552433732313a206f70657261746f7220717565727920666f72206e6f6e657860448201526b34b9ba32b73a103a37b5b2b760a11b60648201526084016105b6565b6000610e5f8361087e565b9050806001600160a01b0316846001600160a01b03161480610e9a5750836001600160a01b0316610e8f8461054e565b6001600160a01b0316145b80610cba57506001600160a01b0380821660009081526005602090815260408083209388168352929052205460ff16610cba565b826001600160a01b0316610ee18261087e565b6001600160a01b031614610f495760405162461bcd60e51b815260206004820152602960248201527f4552433732313a207472616e73666572206f6620746f6b656e2074686174206960448201526839903737ba1037bbb760b91b60648201526084016105b6565b6001600160a01b038216610fab5760405162461bcd60e51b8152602060048201526024808201527f4552433732313a207472616e7366657220746f20746865207a65726f206164646044820152637265737360e01b60648201526084016105b6565b610fb6600082610d7a565b6001600160a01b0383166000908152600360205260408120805460019290610fdf908490611cb8565b90915550506001600160a01b038216600090815260036020526040812080546001929061100d908490611c8c565b909155505060008181526002602052604080822080546001600160a01b0319166001600160a01b0386811691821790925591518493918716917fddf252ad1be2c89b69c2b068fc378daa952ba7f163c4a11628f55a4df523b3ef91a4505050565b61082b828260405180602001604052806000815250611495565b6060816110ac5750506040805180820190915260018152600360fc1b602082015290565b8160005b81156110d657806110c081611d36565b91506110cf9050600a83611ca4565b91506110b0565b60008167ffffffffffffffff8111156110f1576110f1611dbd565b6040519080825280601f01601f19166020018201604052801561111b576020820181803683370190505b5090505b8415610cba57611130600183611cb8565b915061113d600a86611d51565b611148906030611c8c565b60f81b81838151811061115d5761115d611da7565b60200101906001600160f81b031916908160001a90535061117f600a86611ca4565b945061111f565b61118f82610d5d565b6111f25760405162461bcd60e51b815260206004820152602e60248201527f45524337323155524953746f726167653a2055524920736574206f66206e6f6e60448201526d32bc34b9ba32b73a103a37b5b2b760911b60648201526084016105b6565b600082815260066020908152604090912082516106ec92840190611708565b600780546001600160a01b038381166001600160a01b0319831681179093556040519116919082907f8be0079c531659141344cd1fd0a4f28419497f9722a3daafe3b4186f6b6457e090600090a35050565b6000808212156112b55760405162461bcd60e51b815260206004820181905260248201527f53616665436173743a2076616c7565206d75737420626520706f73697469766560448201526064016105b6565b5090565b816001600160a01b0316836001600160a01b0316141561131b5760405162461bcd60e51b815260206004820152601960248201527f4552433732313a20617070726f766520746f2063616c6c65720000000000000060448201526064016105b6565b6001600160a01b03838116600081815260056020908152604080832094871680845294825291829020805460ff191686151590811790915591519182527f17307eab39ab6107e8899845ad3d59bd9653f200f220920489ca2b5937696c31910160405180910390a3505050565b611393848484610ece565b61139f848484846114c8565b610b525760405162461bcd60e51b81526004016105b690611bb4565b6060600a80546104cb90611cfb565b60606113d582610d5d565b6114395760405162461bcd60e51b815260206004820152602f60248201527f4552433732314d657461646174613a2055524920717565727920666f72206e6f60448201526e3732bc34b9ba32b73a103a37b5b2b760891b60648201526084016105b6565b60006114436113bb565b90506000815111611463576040518060200160405280600081525061148e565b8061146d84611088565b60405160200161147e929190611b09565b6040516020818303038152906040525b9392505050565b61149f83836115d5565b6114ac60008484846114c8565b6106ec5760405162461bcd60e51b81526004016105b690611bb4565b60006001600160a01b0384163b156115ca57604051630a85bd0160e11b81526001600160a01b0385169063150b7a029061150c903390899088908890600401611b38565b602060405180830381600087803b15801561152657600080fd5b505af1925050508015611556575060408051601f3d908101601f19168201909252611553918101906119d7565b60015b6115b0573d808015611584576040519150601f19603f3d011682016040523d82523d6000602084013e611589565b606091505b5080516115a85760405162461bcd60e51b81526004016105b690611bb4565b805181602001fd5b6001600160e01b031916630a85bd0160e11b149050610cba565b506001949350505050565b6001600160a01b03821661162b5760405162461bcd60e51b815260206004820181905260248201527f4552433732313a206d696e7420746f20746865207a65726f206164647265737360448201526064016105b6565b61163481610d5d565b156116815760405162461bcd60e51b815260206004820152601c60248201527f4552433732313a20746f6b656e20616c7265616479206d696e7465640000000060448201526064016105b6565b6001600160a01b03821660009081526003602052604081208054600192906116aa908490611c8c565b909155505060008181526002602052604080822080546001600160a01b0319166001600160a01b03861690811790915590518392907fddf252ad1be2c89b69c2b068fc378daa952ba7f163c4a11628f55a4df523b3ef908290a45050565b82805461171490611cfb565b90600052602060002090601f016020900481019282611736576000855561177c565b82601f1061174f57805160ff191683800117855561177c565b8280016001018555821561177c579182015b8281111561177c578251825591602001919060010190611761565b506112b59291505b808211156112b55760008155600101611784565b600067ffffffffffffffff808411156117b3576117b3611dbd565b604051601f8501601f19908116603f011681019082821181831017156117db576117db611dbd565b816040528093508581528686860111156117f457600080fd5b858560208301376000602087830101525050509392505050565b80356001600160a01b038116811461087957600080fd5b80356003811061087957600080fd5b805169ffffffffffffffffffff8116811461087957600080fd5b60006020828403121561186057600080fd5b61148e8261180e565b6000806040838503121561187c57600080fd5b6118858361180e565b91506118936020840161180e565b90509250929050565b6000806000606084860312156118b157600080fd5b6118ba8461180e565b92506118c86020850161180e565b9150604084013590509250925092565b600080600080608085870312156118ee57600080fd5b6118f78561180e565b93506119056020860161180e565b925060408501359150606085013567ffffffffffffffff81111561192857600080fd5b8501601f8101871361193957600080fd5b61194887823560208401611798565b91505092959194509250565b6000806040838503121561196757600080fd5b6119708361180e565b91506020830135801515811461198557600080fd5b809150509250929050565b600080604083850312156119a357600080fd5b6119ac8361180e565b946020939093013593505050565b6000602082840312156119cc57600080fd5b813561148e81611dd3565b6000602082840312156119e957600080fd5b815161148e81611dd3565b600060208284031215611a0657600080fd5b61148e82611825565b60008060408385031215611a2257600080fd5b6119ac83611825565b600060208284031215611a3d57600080fd5b813567ffffffffffffffff811115611a5457600080fd5b8201601f81018413611a6557600080fd5b610cba84823560208401611798565b600060208284031215611a8657600080fd5b5035919050565b600080600080600060a08688031215611aa557600080fd5b611aae86611834565b9450602086015193506040860151925060608601519150611ad160808701611834565b90509295509295909350565b60008151808452611af5816020860160208601611ccf565b601f01601f19169290920160200192915050565b60008351611b1b818460208801611ccf565b835190830190611b2f818360208801611ccf565b01949350505050565b6001600160a01b0385811682528416602082015260408101839052608060608201819052600090611b6b90830184611add565b9695505050505050565b6040810160038410611b9757634e487b7160e01b600052602160045260246000fd5b9281526020015290565b60208152600061148e6020830184611add565b60208082526032908201527f4552433732313a207472616e7366657220746f206e6f6e20455243373231526560408201527131b2b4bb32b91034b6b83632b6b2b73a32b960711b606082015260800190565b6020808252818101527f4f776e61626c653a2063616c6c6572206973206e6f7420746865206f776e6572604082015260600190565b60208082526031908201527f4552433732313a207472616e736665722063616c6c6572206973206e6f74206f6040820152701ddb995c881b9bdc88185c1c1c9bdd9959607a1b606082015260800190565b60008219821115611c9f57611c9f611d65565b500190565b600082611cb357611cb3611d7b565b500490565b600082821015611cca57611cca611d65565b500390565b60005b83811015611cea578181015183820152602001611cd2565b83811115610b525750506000910152565b600181811c90821680611d0f57607f821691505b60208210811415611d3057634e487b7160e01b600052602260045260246000fd5b50919050565b6000600019821415611d4a57611d4a611d65565b5060010190565b600082611d6057611d60611d7b565b500690565b634e487b7160e01b600052601160045260246000fd5b634e487b7160e01b600052601260045260246000fd5b634e487b7160e01b600052602160045260246000fd5b634e487b7160e01b600052603260045260246000fd5b634e487b7160e01b600052604160045260246000fd5b6001600160e01b031981168114610d5a57600080fdfea2646970667358221220f166e021a625c5fcb7e182c3b905a2fbdba386bdaf0cabd4d73018ec125bc00064736f6c63430008070033",
  "linkReferences": {},
  "deployedLinkReferences": {}
}